:020000040800F2
:1000000070060020DD010008B5020008AD020008FE
:10001000B10200088F02000845030008000000003C
:10002000000000000000000000000000B90200080D
:100030009302000800000000B7020008BB0200089D
:10004000F7010008F7010008F7010008F7010008B0
:10005000F7010008F7010008F7010008F7010008A0
:10006000F7010008F7010008F7010008F701000890
:10007000F7010008F7010008F7010008F701000880
:10008000F7010008F7010008F7010008F701000870
:10009000F7010008F7010008F7010008F701000860
:1000A000F7010008F7010008F7010008F701000850
:1000B000F7010008F7010008F7010008F701000840
:1000C000F7010008F7010008F7010008F701000830
:1000D000F7010008F7010008F7010008F701000820
:1000E000F7010008F7010008F7010008F701000810
:1000F000F7010008F7010008F7010008F701000800
:10010000F7010008F7010008F7010008F7010008EF
:10011000F7010008F7010008F7010008F7010008DF
:10012000F7010008F7010008F7010008F7010008CF
:10013000F7010008F7010008F701000800F002F8D5
:1001400000F03CF80AA090E8000C82448344AAF135
:100150000107DA4501D100F031F8AFF2090EBAE833
:100160000F0013F0010F18BFFB1A43F001031847EB
:10017000E801000008020000103A24BF78C878C1E6
:10018000FAD8520724BF30C830C144BF04680C609D
:10019000704700000023002400250026103A28BFE5
:1001A00078C1FBD8520728BF30C148BF0B607047E9
:1001B0001FB500F0CBF81FBD10B510BD00F031F831
:1001C0001146FFF7F5FF00F0BFF800F04FF803B459
:1001D000FFF7F2FF03BC00F053F800000948804726
:1001E00009480047FEE7FEE7FEE7FEE7FEE7FEE719
:1001F000FEE7FEE7FEE7FEE704480549054A064B31
:1002000070470000C50200083D0100087000002092
:1002100070060020700200207002002070477047B6
:100220007047754600F028F8AE460500694653460B
:1002300020F00700854618B020B5FFF7DDFFBDE8C8
:1002400020404FF000064FF000074FF000084FF03D
:10025000000B21F00701AC46ACE8C009ACE8C009CE
:10026000ACE8C009ACE8C0098D4670470446AFF35E
:1002700000802046FFF7ABFF004870470C000020CD
:1002800001491820ABBEFEE726000200704700BF00
:10029000FEE77047034800680349096808440149BC
:1002A00008607047000000200800002000BFFEE743
:1002B00000BFFEE770477047704710B5FFF7EAFFD1
:1002C00010BD000000201B4908601A4880300068FB
:1002D00040F470001749803108604FF0B04000686A
:1002E00040F001004FF0B04108604FF4E02088601A
:1002F00008460068104908404FF0B04108600F48B8
:10030000006820F00500C1F894000846D0F8980075
:1003100020F001000949091D086009484FF0B0416B
:10032000C86008610846006820F48020086000204A
:100330008861704708ED00E0FBFEF6FA9400005873
:100340000010042200BFFEE700BFFEE74FF0407040
:10035000E1EE100A7047000078030008000000205A
:100360000C00000078010008840300080C00002045
:100370006406000094010008000000001000000066
:040380000100000078
:040000050800013DB1
:00000001FF
