:020000040800F2
:1000000078060020DD010008AD1300084511000846
:10001000A9130008DF02000879180008000000009A
:100020000000000000000000000000008916000829
:10003000E302000800000000B11300088B1600085E
:10004000F7010008F7010008F7010008F7010008B0
:10005000F7010008F7010008F7010008F7010008A0
:10006000F7010008F7010008F7010008F701000890
:10007000F7010008F7010008F7010008F701000880
:10008000F7010008F7010008F7010008F701000870
:10009000F7010008F7010008F7010008F701000860
:1000A000F7010008F7010008F7010008F701000850
:1000B000F7010008F7010008F7010008F701000840
:1000C000F7010008F7010008F7010008F701000830
:1000D000F7010008F7010008F7010008F701000820
:1000E000F7010008F7010008F7010008F701000810
:1000F000F7010008F7010008F7010008F701000800
:10010000F7010008F7010008F7010008F7010008EF
:10011000F7010008F7010008F7010008F7010008DF
:10012000F7010008F7010008F7010008F7010008CF
:10013000F7010008F7010008F701000800F002F8D5
:1001400000F03CF80AA090E8000C82448344AAF135
:100150000107DA4501D100F031F8AFF2090EBAE833
:100160000F0013F0010F18BFFB1A43F001031847EB
:100170002419000044190000103A24BF78C878C13F
:10018000FAD8520724BF30C830C144BF04680C609D
:10019000704700000023002400250026103A28BFE5
:1001A00078C1FBD8520728BF30C148BF0B607047E9
:1001B0001FB501F0D3FB1FBD10B510BD00F058F8FE
:1001C0001146FFF7F5FF01F0B7FB00F076F803B436
:1001D000FFF7F2FF03BC00F07BF8000009488047FE
:1001E00009480047FEE7FEE7FEE7FEE7FEE7FEE719
:1001F000FEE7FEE7FEE7FEE704480549054A064B31
:1002000070470000011800083D0100087800002038
:100210007806002078020020780200204FF00002CB
:1002200000B5134694469646203922BFA0E80C50EC
:10023000A0E80C50B1F12001BFF4F7AF090728BFC7
:10024000A0E80C5048BF0CC05DF804EB890028BF43
:1002500040F8042B08BF704748BF20F8022B11F06C
:10026000804F18BF00F8012B7047704770477047E8
:10027000754600F029F8AE4605006946534620F061
:100280000700854618B020B5FFF7B6FFBDE820404F
:100290004FF000064FF000074FF000084FF0000B42
:1002A00021F00701AC46ACE8C009ACE8C009ACE8F5
:1002B000C009ACE8C0098D4670470446AFF3008022
:1002C0002046FFF784FF000000487047140000201C
:1002D00001491820ABBEFEE726000200704700BFB0
:1002E000FEE7704772B600BFFEE7000001480068F5
:1002F00070470000080000200148006870470000B7
:100300000C000020034800680349096808440149BB
:1003100008607047080000201000002010B500247D
:100320000948006840F4807007490860032000F025
:1003300075F80F2000F00AF808B1012401E000F080
:100340002FF8204610BD00000040005870B504464C
:10035000002511480068D8B100F03EFB0E4909683D
:100360004FF47A72B2FBF1F1B0FBF1F6304600F0D7
:10037000CFFE58B9102C07D200222146501E00F0A3
:1003800010F80648046004E0012502E0012500E0C1
:100390000125284670BD0000100000200C00002040
:1003A00070472DE9F05F80460D46164601F066FA6B
:1003B000074639462A46334601F00700C0F1070ACE
:1003C000BAF1040F02D94FF0040A01E0C0F1070AA4
:1003D000D14600F1040ABAF1070F02D24FF0000A29
:1003E00001E0A0F1030AD4464FF0010A0AFA09FA23
:1003F000AAF1010A0AEA020A0AFA0CFA4FF0010B02
:100400000BFA0CFBABF1010B0BEA030B4AEA0B04F2
:100410002146404601F03AFABDE8F09F00BF00F0E7
:100420000702064B19684FF6FF031940044B0B43B4
:1004300043EA0221014B196000BF70470CED00E058
:100440000000FA050248006800F4C0607047000030
:10045000000400580348006840F4807001490860B7
:1004600070470000000400582DE9F04704460025BD
:10047000A946207800F0400040282CD1206B90B194
:10048000B0F5800F06D0B0F5000F12D0B0F5400FD8
:1004900010D10DE04FF0B040C06840F480304FF014
:1004A000B041C86008E0201D00F098FF054603E059
:1004B00002E001E0012500BF00BF5DB9206BA64945
:1004C000096821F4400101434FF0B042C2F888109E
:1004D00000BF00E0A946208800F40060B0F5006F7E
:1004E00057D100BF9C480830006800F440700746B0
:1004F000206CB8424BD0FFF7ADFF67B9206C96492E
:100500000831096821F4407101434FF0B042C2F84C
:10051000901000BF39E090480830D0F8008000BF4C
:100520004FF0B040D0F8900040F480308A49083154
:10053000086000BF00BF4FF0B040D0F8900020F43A
:100540008030086000BF28F44070216C40EA010848
:100550004FF0B040C0F8908000BFD0F8900000F09D
:10056000010088B1FFF7C2FE064608E0FFF7BEFEB5
:10057000801B41F28831884201D9032503E000F055
:100580003DFE0128F2D100BF00BFA94600E0A94608
:1005900000BF207800F0010058B1A0696E490968D9
:1005A00021F0030101434FF0B042C2F8881000BFB0
:1005B00000BF207800F0020002280BD1E0696649F4
:1005C000096821F4406101434FF0B042C2F888103D
:1005D00000BF00BF207800F01000102802D1A06AF0
:1005E00000F0C8FE207800F02000202802D1E06A48
:1005F00000F0C0FE207800F00400042802D1206A38
:1006000000F0A4FE207800F00800082802D1606AFB
:1006100000F09CFE208800F48070B0F5807F1AD135
:10062000676B384600F086FE00BF606BB0F1006F6C
:1006300007D14FF0B040C06840F080704FF0B0413B
:10064000C860606BB0F1806F05D1201D00F00DFF18
:10065000054605B1A946208800F40070B0F5007F7A
:1006600025D100BFA06BB0F1804F05D0A06BB0F1D9
:10067000004F01D0A06B18B9A06B00F089FE09E013
:10068000A06B20F08057002000F082FE384600F07A
:1006900051FE00BF00BFA06BB0F1C05F07D14FF0AB
:1006A000B040C06840F080704FF0B041C860208812
:1006B00000F48060B0F5806F1ED1E06B26490968B8
:1006C00021F0405101434FF0B042C2F8881000BF02
:1006D000E06BB0F1005F05D11046C06840F4803097
:1006E0001146C860E06BB0F1805F05D1201D00F0BD
:1006F00003FF054605B1A946208800F48050B0F5F7
:10070000805F0CD1606C14490C31096821F44041C0
:1007100001434FF0B042C2F8941000BF00BF2088E0
:1007200000F40050B0F5005F13D1E06C4FF0B04121
:10073000496A21F0300101434FF0B042516200BFDD
:10074000A06C1146496A21F003010143516200BFC8
:1007500000BF4846BDE8F087880000582DE9F04109
:1007600004460E4614B90120BDE8F081984800689F
:1007700000F00700B04217D29548006820F007004B
:10078000304393490860FFF7B1FD054606E0FFF7E7
:10079000ADFD401B022801D90320E5E78C48006825
:1007A00000F00700B042F2D1207800F002000228E9
:1007B0001DD1A0684FF0B041896821F0F0010143DC
:1007C0004FF0B042916000BFFFF790FD054606E094
:1007D000FFF78CFD401B022801D90320C4E700BFAE
:1007E0004FF0B0408068C0F300400028F0D020787F
:1007F00000F0200020281CD160697649096821F0AA
:10080000F00101434FF0B042C2F8081100BFFFF7FA
:100810006DFD054606E0FFF769FD401B022801D982
:100820000320A1E700BF6B480068C0F340400028E8
:10083000F1D0207800F0400040281DD1A069654922
:10084000096821F00F0141EA10114FF0B042C2F8DF
:10085000081100BFFFF74AFD054606E0FFF746FD19
:10086000401B022801D903207EE700BF59480068D9
:10087000C0F300400028F1D0207800F004000428E4
:100880001DD1E0684FF0B041896821F4E061014377
:100890004FF0B042916000BFFFF728FD054606E02B
:1008A000FFF724FD401B022801D903205CE700BFAD
:1008B0004FF0B0408068C0F340400028F0D020786E
:1008C00000F0080008281ED12169C8004FF0B0418F
:1008D000896821F4605101434FF0B042916000BF3C
:1008E000FFF704FD054606E0FFF700FD401B022868
:1008F00001D9032038E700BF4FF0B0408068C0F353
:1009000080400028F0D0207800F0010098B36068A3
:10091000022804D100F03EFCA8B9012024E7606859
:10092000032804D100F000FD68B901201CE76068CD
:1009300020B900F0B1FC30B9012015E700F038FC17
:1009400008B9012010E760684FF0B041896821F0D4
:10095000030101434FF0B042916000BFFFF7C6FCB6
:10096000054609E0FFF7C2FC401B41F2883188428E
:1009700002D90320F8E605E000F0EEFB6168B0EB79
:10098000810FEFD11248006800F00700B04217D97C
:100990000F48006820F0070030430D490860FFF75A
:1009A000A5FC054606E0FFF7A1FC401B022801D983
:1009B0000320D9E60648006800F00700B042F2D1F3
:1009C00000F0B6FEFFF798FC0746FFF7BFFCCBE64A
:1009D000004000580801005810B500F00FF84FF023
:1009E000B041896801F0F0010909034A52F8211069
:1009F000B0FBF1F010BD0000681900082DE9F041CE
:100A000000F0AAFB06463EB900F03DFCC0F303101F
:100A1000234951F820403FE0042E01D1214C3BE016
:100A2000082E07D100F0B0FB012801D11D4C33E0A6
:100A30001D4C31E000F06CFC0746012F0FD0022F57
:100A400002D0032F0AD101E0164D10E000F09CFB0C
:100A5000012801D1134D00E0134D08E000BF00F064
:100A600012FCC0F303100E4951F8205000BF00BF24
:100A700000F054FC68434FF0B041C96801F07001C8
:100A8000012202EB1111B0FBF1F14FF0B040C06850
:100A900002EB5070B1FBF0F42046BDE8F08100009D
:100AA000C81900080024F4000048E8012DE9F041CD
:100AB000044614B90120BDE8F081207800F0200040
:100AC00020286ED100F048FB064600F021FC0746C6
:100AD0001EB10C2E2FD1012F2DD100F0DDFB18B14E
:100AE000E06908B90120E6E700F0CDFB616A8842C1
:100AF0000CD2606A00F0A0FD08B10120DBE7606A5B
:100B000000F0DBFB206A00F0CDFB0BE0606A00F038
:100B1000D4FB206A00F0C6FB606A00F08DFD08B1CE
:100B20000120C8E700F004FEF8480068FFF70EFC5B
:100B300080B30120BFE7E069B8B100F09BFBFFF78D
:100B4000D5FB054606E0FFF7D1FB401B022801D983
:100B50000320B0E700F0A0FB0028F4D0606A00F0AA
:100B6000ACFB206A00F09EFB1AE000BF4FF0B040E3
:100B7000006820F001004FF0B041086000BFFFF7AF
:100B8000B5FB054608E0FFF7B1FB401B022803D97F
:100B9000032090E704E004E000F07EFB0028F2D19F
:100BA00000BF207800F0010000285BD000F0D4FAEC
:100BB000064600F0ADFB0746082E03D00C2E08D1E8
:100BC000032F06D100F0E6FA78B3606868BB012015
:100BD00071E700BF6068B0F5803F02D100F0CBFA4A
:100BE0001CE06068B0F5A02F0CD100BF4FF0B04002
:100BF000006840F480204FF0B041086000BF00F072
:100C0000BAFA0BE000BF4FF0B040006820F480302B
:100C10004FF0B041086000BF00F0A4FA00BF606868
:100C200080B1FFF763FB054607E01AE0FFF75EFBC4
:100C3000401B642801D903203DE700F0ABFA0028EF
:100C4000F4D00EE0FFF752FB054606E0FFF74EFB3F
:100C5000401B642801D903202DE700F09BFA0028EF
:100C6000F4D100BF207800F0020002284FD100F03C
:100C700073FA064600F04CFB0746042E03D00C2EF8
:100C80000CD1022F0AD100F093FA18B1E06808B92C
:100C9000012010E7206900F091FA37E0E068E0B148
:100CA00000BF4FF0B040006840F480704FF0B0419A
:100CB000086000BFFFF71AFB054606E0FFF716FBCA
:100CC000401B022801D90320F5E600F071FA002844
:100CD000F4D0206900F072FA18E000BF4FF0B04085
:100CE000006820F480704FF0B041086000BFFFF74B
:100CF000FDFA054606E0FFF7F9FA401B022801D984
:100D00000320D8E600F054FA0028F4D100BF207880
:100D100000F00800082804D0207800F01000102807
:100D200052D16069F0B3207800F0100010284CD147
:100D300000F084FA80B900F075FAFFF7D7FA05469B
:100D400006E0FFF7D3FA401B022801D90320B2E6E0
:100D500000F074FA0028F4D000BF6D48006840F03D
:100D600004004FF0B041C1F8940000BFFFF7BEFA95
:100D7000054606E0FFF7BAFA401B032801D9032015
:100D800099E600F06FFA0028F4D0A069604909687C
:100D900021F4706141EA00214FF0B042C2F8941092
:100DA00000BF00E031E000F031FAFFF79FFA05469E
:100DB00006E0FFF79BFA401B022801D903207AE6E0
:100DC00000F03CFA0028F4D141E000F02BFAFFF7E4
:100DD0008DFA054606E0FFF789FA401B022801D983
:100DE000032068E600F02AFA0028F4D000F02EFA7A
:100DF00006E0FFF77BFA401B032801D903205AE6DF
:100E000000F030FA0028F4D121E000F01FFAFFF7DB
:100E10006DFA054606E0FFF769FA401B032801D981
:100E2000032048E600F01EFA0028F4D100F0EEF9A5
:100E3000FFF75CFA054606E0FFF758FA401B022868
:100E400001D9032037E600F0F9F90028F4D1207821
:100E500000F00400042870D12E48006800F480706F
:100E600090B9FFF7F7FAFFF741FA054606E0FFF7FA
:100E70003DFA401B022801D903201CE625480068E2
:100E800000F480700028F2D000BFA068012802D1D1
:100E900000F0A0F925E0A06805280DD100BF1C488E
:100EA000001F006840F004004FF0B041C1F890000E
:100EB00000BF00F08FF914E000BF1548001F006864
:100EC00020F001004FF0B041C1F8900000BF00BF1A
:100ED0000846D0F8900020F00400C1F8900000BF50
:100EE00000BF00BFA068B8B1FFF700FA054608E0F0
:100EF000FFF7FCF9401B41F28831884201D90320F9
:100F0000D9E500F073F90028F2D016E00C000020BB
:100F10009400005800040058FFF7E8F9054608E07F
:100F2000FFF7E4F9401B41F28831884201D90320E0
:100F3000C1E500F05BF90028F2D1207800F0400014
:100F4000402834D1A06AC8B100BF6448006840F0AE
:100F500001004FF0B041C1F8980000BFFFF7C6F99B
:100F6000054606E0FFF7C2F9401B022801D903201D
:100F7000A1E500F015F90028F4D018E000BF5748AB
:100F8000006820F001004FF0B041C1F8980000BFA8
:100F9000FFF7ACF9054606E0FFF7A8F9401B022869
:100FA00001D9032087E500F0FBF80028F4D1E06ABE
:100FB000E0B300F0D1F80C2866D0E06A022842D1F4
:100FC00000F09DF9FFF792F9054606E0FFF78EF96C
:100FD000401B022801D903206DE500F0A5F9002887
:100FE000F4D1D4E90C010843A16B40EA0120E16B84
:100FF0000843216C0843616C08434FF0B041C96855
:10100000374A114008434FF0B041C86000BF08465E
:10101000006840F08070086000BF0846C06840F07B
:101020008050C860FFF762F9054607E054E0FFF71B
:101030005DF9401B022801D903203CE500F074F95A
:101040000028F4D048E000F05AF94FF0B040C068F2
:1010500020F003004FF0B041C8600846C068214945
:1010600008404FF0B041C860FFF740F9054606E080
:10107000FFF73CF9401B022801D903201BE500F0D3
:1010800053F90028F4D127E0E06A012800D112E5E5
:101090004FF0B040C16801F00302206B824218D1CA
:1010A00001F07002606B824213D1C1F30622A06B83
:1010B00090420ED101F47812E06B824209D101F026
:1010C0006062206C824204D101F06042606C824216
:1010D00001D00120EFE400BF0020ECE498000058AC
:1010E0008C80C111FFFFFEEE042808D14FF0E021F3
:1010F000096941F004014FF0E022116107E04FF06F
:10110000E021096921F004014FF0E02211617047EC
:1011100070B504462546681EB0F1807F01D30120DA
:101120000FE0681E4FF0E02148610F214FF0FF30C3
:1011300000F0ACFB00204FF0E0218861072008613F
:10114000002070BD00BFFEE7024800680007000EE7
:1011500070470000080100584FF0B040806800F070
:101160000C0070474FF0B040006820F480204FF032
:10117000B041086070474FF0B040006840F48030E4
:101180004FF0B041086070474FF0B0400068C0F3C6
:10119000005070474FF0B0400068C0F340407047C7
:1011A00002480068C0F340007047000098000058F3
:1011B0004FF0B0400068C0F3802070474FF0B0415E
:1011C000496821F0FE4141EA00614FF0B0425160B0
:1011D000704700000448006840F001004FF0B04143
:1011E000C1F8900070470000900000580248006865
:1011F000C0F34000704700009000005802480068AB
:10120000C0F3400070470000900000580448006898
:1012100020F001004FF0B041C1F894007047000089
:10122000940000580448006840F001004FF0B041BD
:10123000C1F894007047000094000058024800680C
:10124000C0F3400070470000940000580448006854
:1012500020F004004FF0B041C1F894007047000046
:101260009400005802480068C0F3C00070470000B6
:10127000940000584FF0B040006840F001004FF07B
:10128000B041086070474FF0B041096801F0F000CC
:10129000B02800D9B02070474FF0B0400068C0F3CC
:1012A000400070474FF0B041496821F47F4141EA66
:1012B00000214FF0B042516070474FF0B0410968D3
:1012C00021F0F00101434FF0B042116070474FF040
:1012D000B040006820F080604FF0B0410860704777
:1012E0004FF0B040006840F080604FF0B0410860BF
:1012F00070474FF0B0400068C0F3C06070474FF0D7
:10130000B040006820F080704FF0B0410860704736
:101310004FF0B040C06800F0030070474FF0B0409D
:10132000C068C0F3062070474FF0B0400068C0F3BB
:10133000406070470449096821F0406101434FF063
:10134000B042C2F888107047880000580849096800
:101350004FF47F2202EA101291434FF47F2202EAF7
:10136000001211434FF0B042C2F8881070470000DD
:101370008800005805490968020C1204914341EAAB
:1013800000414FF0B042C2F8881070478800005802
:101390000449096821F0404101434FF0B042C2F8CE
:1013A000881070478800005800BFFEE700BFFEE7C6
:1013B000704700B595B0502101A8FEF72FFF4FF4FC
:1013C00000500190002013901020149001A8FFF706
:1013D0004BF808B1FEF786FF15B000BD70B50446A6
:1013E0000025FFF774FFFEF781FF064606E0FEF7D3
:1013F0007DFF801B022801D9032503E0FFF779FF59
:101400000028F4D100BF75BB4FF0B040006920F454
:10141000FE40216840EA01204FF0B04108610846D3
:10142000006920F47810616808434FF0B04108610A
:10143000FFF756FFFEF75AFF064606E0FEF756FF97
:10144000801B022801D9032503E0FFF752FF012882
:10145000F4D100BF3DB94FF0B040006921690843A5
:101460004FF0B0410861284670BD70B504460025B4
:10147000FFF72DFFFEF73AFF064606E0FEF736FFC0
:10148000801B022801D9032503E0FFF732FF002863
:10149000F4D100BF75BB4FF0B040006920F4FE40AE
:1014A000216840EA01204FF0B04108610846006918
:1014B00020F06060A16808434FF0B0410861FFF779
:1014C0000FFFFEF713FF064606E0FEF70FFF801B37
:1014D000022801D9032503E0FFF70BFF0128F4D10F
:1014E00000BF3DB94FF0B0400069216908434FF09B
:1014F000B0410861284670BD70B504460025FFF76D
:10150000E6FEFEF7F3FE064606E0FEF7EFFE801B62
:10151000022801D9032503E0FFF7EBFE0028F4D1F0
:1015200000BF75BB4FF0B040006920F4FE40216859
:1015300040EA01204FF0B04108610846006920F000
:101540006040E16808434FF0B0410861FFF7C8FE12
:10155000FEF7CCFE064606E0FEF7C8FE801B02281A
:1015600001D9032503E0FFF7C4FE0128F4D100BF31
:101570003DB94FF0B0400069216908434FF0B041D8
:101580000861284670BD0000F0B58BB004460E46D9
:10159000274B0FCB07AD0FC5254A1032D2E90010FB
:1015A0009268CDE905020491214B1C33D3E9002058
:1015B000D3E9021301AD0BC500920027B6F5007FF9
:1015C0000DD1002008E007A951F82010A14202D354
:1015D0005DF8207002E0401C0428F4D30DE00020E8
:1015E00008E004A951F82010A14202D35DF8207050
:1015F00002E0401C0328F4D300BF0E48006820F02E
:10160000070038430B490860FEF770FE054607E007
:10161000FEF76CFE401B022802D903200BB0F0BD80
:101620000448006800F00700B842F1D10020F5E757
:10163000681A0008004000582DE9F0410446B02C1B
:1016400002D90E48C56A04E00C48C4F3031150F8EF
:101650002150FFF779FDC0F30310094951F820002C
:10166000B5FBF0F6FEF7EEFE80460648B6FBF0F757
:1016700041463846FFF788FFBDE8F081C8190008E9
:101680006819000840420F00704710B5FEF73AFE97
:1016900010BD000000B59BB0482109A8FEF7BEFDB3
:1016A0001C2102A8FEF7BAFD00BF2048006820F404
:1016B000C06040F400701D4908600846006800F4EE
:1016C000C060019000BF00BF0320099088010A900C
:1016D00000120C9040200D900220149003211591CF
:1016E00010211691082117910104189101071A91F0
:1016F0000106199109A8FFF7D9F908B1FEF7F2FD23
:101700006F20029003200390002004900590069023
:101710009020079000200890042102A8FFF71EF8EF
:1017200008B1FEF7DFFD1BB000BD0000000400584B
:10173000F0B54FF0B0463668C6F303162B4F57F896
:1017400026204FF0B046B66806F00C0636B1042EDF
:1017500007D0082E09D00C2E35D10AE0244E326075
:1017600034E0244E224F3E6030E0234E204F3E6056
:101770002CE04FF0B046F66806F003034FF0B04699
:10178000F668C6F30216711C022B03D1194EB6FB84
:10179000F1F007E0032B03D1174EB6FBF1F001E0A7
:1017A000B2FBF1F04FF0B046F668C6F30626704380
:1017B0004FF0B046F668012707EB5675B0FBF5F61B
:1017C0000B4F3E6002E00A4E326000BF00BF4FF098
:1017D000B046B668C6F30316084F57F82640044EC5
:1017E0003668B6FBF4F6024F3E60F0BDC81900083B
:1017F000000000200024F4000048E80168190008F7
:101800001948006840F47000174908604FF0B04074
:10181000006840F001004FF0B04108604FF4E02054
:10182000886008460068114908404FF0B0410860E0
:101830000F48006820F00500C1F894000846D0F871
:10184000980020F001000A49091D086009484FF07E
:10185000B041C86008610846006820F48020086034
:10186000002088617047000088ED00E0FBFEF6FA7A
:10187000940000580010042200BFFEE702480068F0
:10188000C0F30220704700000CED00E010B5002806
:1018900004DB0A07130E054A135406E00A07140E68
:1018A000034A00F00F031B1FD45410BD00E400E0F6
:1018B00018ED00E010B540240020FFF715FC20468D
:1018C000E11704EB5171C910014A116010BD00000D
:1018D0000400002030B50446002504E04FF47A707F
:1018E00000F004F86D1CA542F8D330BD0146114A42
:1018F00012684A434FF0E0235A6100229A611A4667
:10190000126942F001021A6100BF4FF0E022106933
:1019100000F001021AB100F48032002AF5D04FF035
:10192000E022126922F001024FF0E0231A61002246
:101930009A61704704000020FEF7F0FCFFF7AAFE52
:10194000FFF737FDFFF7B6FF07E04FF47A70FFF7B8
:10195000C1FF4FF47A70FFF7C9FFF6E74FF0407010
:10196000E1EE100A704700000100000003000000D3
:10197000050000000100000001000000060000005A
:101980000A00000020000000020000000400000027
:10199000080000001000000040000000800000006F
:1019A0000001000000020000000000000000000034
:1019B0000000000000000000010000000200000024
:1019C0000300000004000000A0860100400D030099
:1019D000801A060000350C0040420F0080841E0073
:1019E00000093D0000127A000024F40000366E0168
:1019F0000048E801006CDC0200000000000000006C
:101A000000000000000000000100000003000000D2
:101A100002000000020000000100000002000000BF
:101A200002000000060000000400000003000000A7
:101A30000200000004000000040000000C00000090
:101A4000080000000600000004000000080000007C
:101A5000040000000C000000080000000600000068
:101A60000400000008000000120000002400000034
:101A70003600000040000000060000000C000000DE
:101A80001000000000000000010000000200000043
:101A900004000000B41A0008000000201400000038
:101AA00078010008C81A000814000020640600002D
:101AB0009401000800093D00000000000000000043
:081AC00010000000010000000D
:040000050800013DB1
:00000001FF
